:100000000C94FE000C9408010C9408010C94080157
:100010000C9408010C9408010C9408010C9408013C
:100020000C9408010C9408010C9408010C9408012C
:100030000C9408010C9408010C9408010C9408011C
:100040000C9408010C9408010C9408010C9408010C
:100050000C9408010C9408010C9408010C940801FC
:100060000C9408010C9408010C9408010C940801EC
:100070000C9408010C9408010C9408010C940801DC
:100080000C9408010C9408010C9408010C940801CC
:100090000C9408010C9408010C9408010C940801BC
:1000A0000C9408010C9408010C9408010C940801AC
:1000B0000C9408010C9408010C9408010C9408019C
:1000C0000C9408010C9408010C9408010C9408018C
:1000D0000C9408010C9408010C9408010C9408017C
:1000E0000C9408010C9408010C9408010C9408016C
:1000F0000C9408010C9408010C9408010C9408015C
:100100000C9408010C9408010C9408010C9408014B
:100110000C9408010C9408010C9408010C9408013B
:100120000C9408010C9408010C9408010C9408012B
:100130000C9408010C9408010C9408010C9408011B
:100140000C9408010C9408010C9408010C9408010B
:100150000C9408010C9408010C9408010C940801FB
:100160000C9408010C9408010C9408010C940801EB
:100170000C9408010C9408010C9408010C940801DB
:100180000C9408010C9408010C9408010C940801CB
:100190000C9408010C9408010C9408010C940801BB
:1001A0000C9408010C9408010C9408010C940801AB
:1001B0000C9408010C9408010C9408010C9408019B
:1001C0000C9408010C9408010C9408010C9408018B
:1001D0000C9408010C9408010C9408010C9408017B
:1001E0000C9408010C9408010C9408010C9408016B
:1001F0000C9408010C9408010C94080111241FBEF2
:10020000CFEFCDBFDFE2DEBF0E9418010C94780172
:100210000C940000E0E5F0E08081816080838181C2
:1002200080FFFDCF90E088ED84BF9093400008955B
:100230000E940A010E944D01E0E0F6E08FEF818309
:10024000858324E230E0E0ECF8E09CE29383828155
:100250008823ECF7A3EFB1E01197F1F700C000009D
:100260002150310999F70E946F01E0E0F6E08481A6
:10027000811109C084818F5F848383EF91E00197AE
:10028000F1F700C000008481880F8483A3EFB1E000
:100290001197F1F700C00000EACFE0E4F6E08181B9
:1002A0008160818381818260818381818068818393
:1002B0008181806281838181806181838489886179
:1002C000848B858180618583868181608683E0EC73
:1002D000F8E0808180658083818181830895E0E4F6
:1002E000F6E08181816081838281816082830895CB
:0402F000F894FFCFB0
:00000001FF
