:100000000C944A020C9469020C9469020C946902E3
:100010000C9469020C9469020C9469020C946902B4
:100020000C9469020C9469020C9469020C946902A4
:100030000C9469020C9469020C9495040C94690266
:100040000C9469020C9469020C9469020C94690284
:100050000C94BD040C9469020C9469020C9469021E
:100060000C94C0030C9469020C9469020C9469020C
:100070000C9469020C9469020C9469020C94690254
:100080000C9469020C9469020C9469020C94690244
:100090000C9469020C9469020C9469020C94690234
:1000A0000C9469020C9469020C9469020C94690224
:1000B0000C9469020C9469020C9469020C94690214
:1000C0000C9469020C9469020C9469020C94690204
:1000D0000C9469020C9469020C9469020C946902F4
:1000E0000C9469020C9469020C9469020C946902E4
:1000F0000C9469020C9469020C9469020C946902D4
:100100000C94C8020C9469020C9469020C94690264
:100110000C9469020C9469020C9469020C946902B3
:100120000C9469020C9469020C9469020C946902A3
:100130000C9469020C9469020C9469020C94690293
:100140000C9469020C9469020C9469020C94690283
:100150000C9469020C9469020C9469020C94690273
:100160000C9469020C9469020C9469020C94690263
:100170000C9469020C9469020C9469020C94690253
:100180000C9469020C9469020C9469020C94690243
:100190000C9469020C9469020C9469020C94690233
:1001A0000C9469020C9469020C9469020C94690223
:1001B0000C9469020C9469020C9469020C94690213
:1001C0000C9469020C9469020C9469020C94690203
:1001D0000C9469020C9469020C9469020C946902F3
:1001E0000C9469020C9469020C9469020C946902E3
:1001F0000C9469020C9469020C94690200000000DE
:1002000000000000000001010100000100010202E5
:1002100002010003010204040402010703040808A8
:100220000804020E070810101008041C0F102020EC
:10023000201009391E214040402112733C42818127
:10024000814224E73C428181814224E73C42818112
:10025000814224E778840202028448CEF008040434
:100260000408909CE010080808102038C0201010E6
:100270001020407080402020204080E000804040DE
:10028000408000C0000080808000008000000000EE
:10029000000000000000000000000100010002005A
:1002A0000300040005000600070009000A000C0016
:1002B0000E00100012001400160019001B001E0092
:1002C0002100240027002A002D00310034003800CE
:1002D0003C004000440048004D00510056005A00C8
:1002E0005F00640069006F00740079007F00850082
:1002F0008B00910097009D00A300AA00B000B700FA
:10030000BE00C500CC00D300DB00E200EA00F20032
:10031000FA0002010A0112011A0123012B01340122
:100320003D0146014F01580162016B0175017F01DA
:10033000890193019D01A701B201BC01C701D1014F
:10034000DC01E701F301FE010902150220022C0283
:100350003802440250025D026902760282028F0274
:100360009C02A902B602C302D102DE02EC02FA022A
:10037000080316032403320341034F035E036D0396
:100380007C038B039A03A903B903C803D803E803CA
:10039000F803080418042804390449045A046B04B7
:1003A0007C048D049E04AF04C104D204E404F6046A
:1003B00008051A052C053E055105630576058905D6
:1003C0009C05AF05C205D605E905FD051006240606
:1003D00038064C066106750689069E06B306C806F1
:1003E000DD06F20607071C07320747075D0773079C
:1003F00089079F07B507CC07E207F9070F0826080A
:100400003D0854086C0883089B08B208CA08E20833
:10041000FA0812092A0943095B0974098C09A5091C
:10042000BE09D809F1090A0A240A3D0A570A710AC5
:100430008B0AA50ABF0ADA0AF40A0F0B2A0B450B2E
:10044000600B7B0B960BB20BCD0BE90B040C200C55
:100450003C0C590C750C910CAE0CCA0CE70C040D3D
:10046000210D3E0D5C0D790D970DB40DD20DF00DE3
:100470000E0E2C0E4B0E690E880EA60EC50EE40E47
:10048000030F220F420F610F810FA00FC00FE00F6B
:10049000FF0FFF0F11241FBECFEFCDBFDFE2DEBF86
:1004A00010E2A0E0B0E2E2EDF9E000E00BBF02C034
:1004B00007900D92A23CB107D9F720E2A2ECB0E27E
:1004C00001C01D92A53DB207E1F70E949D020C9468
:1004D000E7040C94000090E0FC01EE0FFF1FE80F12
:1004E000F91FEE0FFF1FEE0FFF1FEE0FFF1FE05073
:1004F000F04EE60FF11D4083089590E0FC01EE0FF1
:10050000FF1FE80FF91FEE0FFF1FEE0FFF1FEE0F8B
:10051000FF1FE050F04EE60FF11D80810895E0E5E9
:10052000F0E0808182608083818181FFFDCF91E056
:1005300088ED84BF9093400008950E948F020E942E
:100540008B030E9480040E948A040E94C002E0E0A3
:10055000F6E08FEF818315821092C3087894E0EA69
:10056000F0E08281876082832FEF87EA91E6215055
:1005700080409040E1F700C000000E946303FFCF7D
:10058000E0E6F6E087E0828393E091878287089532
:100590001F920F920FB60F9211248F939F93809109
:1005A000680680FF07C080E197E280936608909319
:1005B000670806C080ED97E080936608909367080F
:1005C0009F918F910F900FBE0F901F901895809163
:1005D000C4208F3F29F48093C0201092C420089536
:1005E0008091C0208F3F29F48093C5201092C020B5
:1005F00008958091C5208F3F29F48093C4201092E4
:10060000C52008958FEF8093C4200895CF92DF9284
:10061000EF92FF920F931F93CF93DF930F2EFDEC7A
:10062000EF2EF0E2FF2EF02DD12C3CC0F70180819F
:1006300090E0002E02C0959587950A94E2F780FF1E
:1006400013C04091C4206D2F8D2D0E946B024091EC
:10065000C0206C2F8D2D0E946B024091C5206C2D07
:100660008D2D0E946B020FC040E06D2F8D2D0E94DA
:100670006B0240E06C2F8D2D0E946B0240E06C2DD0
:100680008D2D0E946B020F5F1F4FDD5FCD5FF3E08A
:10069000CF0EC93159F6D3948FEFE81AF80AE8E083
:1006A000DE1641F06894CC24C1F8C1E0D0E000E04F
:1006B00010E0BCCFDF91CF911F910F91FF90EF9091
:1006C000DF90CF9008954091C2205091C320FA014D
:1006D000EE0FFF1FEE0FFF1FEE0FFF1FE450FE4F48
:1006E000ADECB0E225ED30E284918D933196A21706
:1006F000B307D1F74F5F5F4F4331510529F0409366
:10070000C2205093C32008951092C2201092C3209B
:100710000E94E7020895E0E4F6E081818160818330
:10072000818182608183818180688183818180620F
:10073000818384898861848B8181806181838581C3
:1007400080618583A0ECB8E08C91836D8C931196C9
:100750008C911197816011968C938681816086833C
:100760000895E0ECF8E08181826081830895E0E4FF
:10077000F6E0858183608583868181608683089524
:100780001F920F920FB60F9211240BB60F922F9358
:100790003F934F935F936F937F938F939F93AF9309
:1007A000BF93EF93FF939091CC208BEA989F812D7C
:1007B00011248695282F220F820F981B913001F16A
:1007C00020F0923009F43AC041C08091CB2067E11B
:1007D000681B8091CA200E947D02E82FF0E0EE0F96
:1007E000FF1FEC56FD4F859194918093C820909304
:1007F000C920929582958F7089279F70892727C07D
:100800008091CB208F5F8093CB2067E1681B809124
:10081000CA200E947D02E82FF0E0EE0FFF1FEC5689
:10082000FD4F859194918093C6209093C72080912D
:10083000C8208295807F9F70892B09C08091C62037
:100840009091CB209F5F9093CB2001C080E080935C
:10085000C3088091CC208F5F8093CC209091CB20D7
:10086000983110F48432C8F1E2ECF8E080818823FA
:10087000ECF70E94B703E0ECF8E081818C7F818384
:100880001092CB201092CC208091CA20883030F07A
:100890001092CA2081E08093040619C0811104C01F
:1008A00081E08093040613C0E0E0F6E09481990FA4
:1008B00094838F5F883019F08093CA2002C0109211
:1008C000CA20E0E4F6E086818260868306C08091DB
:1008D000CA208F5F8093CA20F4CFFF91EF91BF9120
:1008E000AF919F918F917F916F915F914F913F91C8
:1008F0002F910F900BBE0F900FBE0F901F90189569
:10090000E0E0F8E083E08083868380EA9FE086A3CE
:1009100097A30895E0E4F8E087E0808381E0868390
:1009200080E29EE486A397A308951F920F920FB6CC
:100930000F9211240BB60F922F933F934F935F9317
:100940006F937F938F939F93AF93BF93EF93FF9397
:100950000E94B103FF91EF91BF91AF919F918F9151
:100960007F916F915F914F913F912F910F900BBEAF
:100970000F900FBE0F901F9018951F920F920FB6F9
:100980000F9211240BB60F922F933F934F935F93C7
:100990006F937F938F939F93AF93BF93EF93FF9347
:1009A0000E9463030E940603FF91EF91BF91AF91F4
:1009B0009F918F917F916F915F914F913F912F9177
:1009C0000F900BBE0F900FBE0F901F901895F894CC
:0209D000FFCF57
:1009D2000000FF0000FF0000FF0000FF0000FF001A
:1009E20000FF0000FF0000FF0000FF00FF0000FF0B
:1009F2000000FF00FF0000FF0000FF00000000FFFA
:100A02000000FFFF0000FF0000FF000000FF0000E9
:100A1200FF0000FF000000FF0000FF00FF0000FFDA
:100A22000000FF00FF0000FF0000FF00000000FFC9
:100A32000000FFFF0000FF0000FF000000FF0000B9
:100A4200FF0000FF000000FF0000FF00FF0000FFAA
:100A52000000FF00FF0000FF0000FF00000000FF99
:100A62000000FFFF0000FF0000FF000000FF000089
:100A7200FF0000FF000000FF0000FF0000FF000079
:100A8200FF0000FF0000FF0000FF0000FF0000FF6A
:020A9200FF0063
:00000001FF
