:100000000C94FE000C941D010C941D010C941D0118
:100010000C941D010C941D010C941D010C941D01E8
:100020000C941D010C941D010C941D010C941D01D8
:100030000C941D010C941D010C9424020C941D01C0
:100040000C941D010C941D010C941D010C941D01B8
:100050000C941D010C941D010C941D010C941D01A8
:100060000C9477010C941D010C941D010C941D013E
:100070000C941D010C941D010C941D010C941D0188
:100080000C941D010C941D010C941D010C941D0178
:100090000C941D010C941D010C941D010C941D0168
:1000A0000C941D010C941D010C941D010C941D0158
:1000B0000C941D010C941D010C941D010C941D0148
:1000C0000C941D010C941D010C941D010C941D0138
:1000D0000C941D010C941D010C941D010C941D0128
:1000E0000C941D010C941D010C941D010C941D0118
:1000F0000C941D010C941D010C941D010C941D0108
:100100000C941D010C941D010C941D010C941D01F7
:100110000C941D010C941D010C941D010C941D01E7
:100120000C941D010C941D010C941D010C941D01D7
:100130000C941D010C941D010C941D010C941D01C7
:100140000C941D010C941D010C941D010C941D01B7
:100150000C941D010C941D010C941D010C941D01A7
:100160000C941D010C941D010C941D010C941D0197
:100170000C941D010C941D010C941D010C941D0187
:100180000C941D010C941D010C941D010C941D0177
:100190000C941D010C941D010C941D010C941D0167
:1001A0000C941D010C941D010C941D010C941D0157
:1001B0000C941D010C941D010C941D010C941D0147
:1001C0000C941D010C941D010C941D010C941D0137
:1001D0000C941D010C941D010C941D010C941D0127
:1001E0000C941D010C941D010C941D010C941D0117
:1001F0000C941D010C941D010C941D0111241FBEB3
:10020000CFEFCDBFDFE2DEBF10E2A0E0B0E2ECE96D
:10021000F4E000E00BBF02C007900D92A030B107E0
:10022000D9F720E2A0E0B0E201C01D92A730B207EA
:10023000E1F70E942D010C944C020C940000E0E5C3
:10024000F0E0808182608083818181FFFDCF91E039
:1002500088ED84BF9093400008950E941F010E9482
:1002600042010E941A027894E0EAF0E082818760FD
:100270008283E0E0F6E08FEF818381E08583109256
:10028000C308FFCFE0E4F6E0818181608183818152
:1002900082608183818180688183818180628183A2
:1002A00084898861848B818180618183858180617B
:1002B0008583A0ECB8E08C91836D8C9311968C9122
:1002C0001197816011968C93868181608683089551
:1002D000E0ECF8E08181826081830895E0E4F6E05B
:1002E00085818360858386818360868308951F92DC
:1002F0000F920FB60F9211240BB60F922F933F93CC
:100300004F935F936F937F938F939F93AF93BF931D
:10031000EF93FF93909106208BEA989F812D1124F3
:100320008695282F220F820F292F281B2130F1F0CC
:1003300018F02230C9F140C080910520811107C01A
:100340002FEF30E0209303203093042004C010925C
:100350000320109204202091032030910420329534
:1003600022952F7023273F70232727C080910520D7
:10037000811107C02FEF30E020930120309302203D
:1003800004C01092012010920220809100208F5F03
:100390008093002020910320822F8295807F2091DE
:1003A00002202F70282B09C020910120809100206D
:1003B0008F5F8093002001C020E02093C3089F5FDF
:1003C0009093062080910020883110F49432F8F048
:1003D0000E946E01E0ECF8E081818C7F81831092B5
:1003E000002010920620E0E0F6E08481880F8483EC
:1003F000809105208F5F883018F48093052007C016
:1004000010920520E0E0F6E084818F5F8483FF9105
:10041000EF91BF91AF919F918F917F916F915F917C
:100420004F913F912F910F900BBE0F900FBE0F90E9
:100430001F901895E0E0F8E083E08083868388E8E9
:1004400093E186A397A308951F920F920FB60F9280
:1004500011240BB60F922F933F934F935F936F939B
:100460007F938F939F93AF93BF93EF93FF930E94DC
:100470006801FF91EF91BF91AF919F918F917F9113
:100480006F915F914F913F912F910F900BBE0F9005
:0C0490000FBE0F901F901895F894FFCF3E
:00000001FF
