S0110000496D706F6E61746F722E737265635A
S11300000C94FE000C941D010C941D010C941D0114
S11300100C941D010C941D010C941D010C941D01E4
S11300200C941D010C941D010C941D010C941D01D4
S11300300C941D010C941D010C944D020C941D0193
S11300400C941D010C941D010C941D010C941D01B4
S11300500C941D010C941D010C941D010C941D01A4
S11300600C9476010C941D010C941D010C941D013B
S11300700C941D010C941D010C941D010C941D0184
S11300800C941D010C941D010C941D010C941D0174
S11300900C941D010C941D010C941D010C941D0164
S11300A00C941D010C941D010C941D010C941D0154
S11300B00C941D010C941D010C941D010C941D0144
S11300C00C941D010C941D010C941D010C941D0134
S11300D00C941D010C941D010C941D010C941D0124
S11300E00C941D010C941D010C941D010C941D0114
S11300F00C941D010C941D010C941D010C941D0104
S11301000C941D010C941D010C941D010C941D01F3
S11301100C941D010C941D010C941D010C941D01E3
S11301200C941D010C941D010C941D010C941D01D3
S11301300C941D010C941D010C941D010C941D01C3
S11301400C941D010C941D010C941D010C941D01B3
S11301500C941D010C941D010C941D010C941D01A3
S11301600C941D010C941D010C941D010C941D0193
S11301700C941D010C941D010C941D010C941D0183
S11301800C941D010C941D010C941D010C941D0173
S11301900C941D010C941D010C941D010C941D0163
S11301A00C941D010C941D010C941D010C941D0153
S11301B00C941D010C941D010C941D010C941D0143
S11301C00C941D010C941D010C941D010C941D0133
S11301D00C941D010C941D010C941D010C941D0123
S11301E00C941D010C941D010C941D010C941D0113
S11301F00C941D010C941D010C941D0111241FBEAF
S1130200CFEFCDBFDFE2DEBF12E2A0E0B0E2EEEE60
S1130210F4E000E00BBF02C007900D92A03CB107D0
S1130220D9F722E2A0ECB2E201C01D92A73CB207CA
S1130230E1F70E942D010C9475020C940000E0E596
S1130240F0E0808182608083818181FFFDCF91E035
S113025088ED84BF9093400008950E941F010E947E
S113026041010E944302E0E0F6E08FEF81831582B2
S11302708093C3087894E0EAF0E082818760828307
S1130280FFCFE0E4F6E08181816081838181826037
S11302908183818180688183818180628183848973
S11302A08861848B8181806181838581806185837C
S11302B0A0ECB8E08C91836D8C9311968C9111977E
S11302C0816011968C938681816086830895E0EC29
S11302D0F8E08181826081830895E0E4F6E085811D
S11302E08360858386818360868308951F920F923D
S11302F00FB60F9211240BB60F922F933F934F9387
S11303005F936F937F938F939F93AF93BF93CF9399
S1130310EF93FF939091C6228BEA989F812D11242D
S11303208695282F220F820F292F281B213089F12F
S113033020F0223009F45CC063C02091C52230E073
S11303408091C42247E150E0481B5109B901660F6E
S1130350771F260F371F220F331F220F331F220F41
S1130360331F2050304EF901E40FF51FE081F0E017
S1130370EE0FFF1FE054FF4D208131812093C222F4
S11303803093C322329522952F7023273F70232761
S113039038C08091C4228F5F8093C4222091C522EB
S11303A030E047E150E0481B5109B901660F771F5F
S11303B0260F371F220F331F220F331F220F331F25
S11303C02050304EF901E40FF51FE081F0E0EE0F0C
S11303D0FF1FE054FF4D808121818093C022209330
S11303E0C1228091C2228295807F2F70282B09C060
S11303F02091C0228091C4228F5F8093C42201C0C7
S113040020E02093C3089F5F9093C6228091C4226A
S1130410893110F4953218F1C091C522CF5FC09391
S1130420C5220E946D01E0ECF8E081818C7F81831C
S11304301092C4221092C622C93030F01092C52204
S113044081E0809304060BC0C13021F481E08093E5
S1130450040605C0E0E0F6E08481880F8483FF9100
S1130460EF91CF91BF91AF919F918F917F916F91B8
S11304705F914F913F912F910F900BBE0F900FBE44
S11304800F901F901895E0E0F8E083E08083868366
S113049088E893E186A397A308951F920F920FB65D
S11304A00F9211240BB60F922F933F934F935F93A8
S11304B06F937F938F939F93AF93BF93EF93FF9328
S11304C00E946701FF91EF91BF91AF919F918F912E
S11304D07F916F915F914F913F912F910F900BBE40
S11104E00F900FBE0F901F901895F894FFCF49
S11304EE0000FF0000FF0000FF0000FF0000FF00FF
S11304FE00FF0000FF0000FF0000FF00FF0000FFF0
S113050E0000FF00FF0000FF0000FF00000000FFDE
S113051E0000FFFF0000FF0000FF000000FF0000CE
S113052EFF0000FF000000FF0000FF00FF0000FFBF
S113053E0000FF00FF0000FF0000FF00000000FFAE
S113054E0000FFFF0000FF0000FF000000FF00009E
S113055EFF0000FF000000FF0000FF00FF0000FF8F
S113056E0000FF00FF0000FF0000FF00000000FF7E
S113057E0000FFFF0000FF0000FF000000FF00006E
S113058EFF0000FF000000FF0000FF0000FF00005E
S113059EFF0000FF0000FF0000FF0000FF0000FF4F
S11305AE000000000000010001000200030004002E
S11305BE05000600070009000A000C000E001000DA
S11305CE12001400160019001B001E002100240046
S11305DE27002A002D003100340038003C00400072
S11305EE440048004D00510056005A005F0064005C
S11305FE69006F00740079007F0085008B00910004
S113060E97009D00A300AA00B000B700BE00C5006D
S113061ECC00D300DB00E200EA00F200FA00020193
S113062E0A0112011A0123012B0134013D01460175
S113063E4F01580162016B0175017F01890193011C
S113064E9D01A701B201BC01C701D101DC01E70183
S113065EF301FE010902150220022C0238024402A3
S113066E50025D026902760282028F029C02A90286
S113067EB602C302D102DE02EC02FA02080316032A
S113068E2403320341034F035E036D037C038B0388
S113069E9A03A903B903C803D803E803F8030804AB
S11306AE18042804390449045A046B047C048D0488
S11306BE9E04AF04C104D204E404F60408051A052A
S11306CE2C053E0551056305760589059C05AF0588
S11306DEC205D605E905FD051006240638064C06A6
S11306EE6106750689069E06B306C806DD06F20681
S11306FE07071C07320747075D07730789079F071C
S113070EB507CC07E207F9070F0826083D08540879
S113071E6C0883089B08B208CA08E208FA08120992
S113072E2A0943095B0974098C09A509BE09D8096C
S113073EF1090A0A240A3D0A570A710A8B0AA50A04
S113074EBF0ADA0AF40A0F0B2A0B450B600B7B0B5C
S113075E960BB20BCD0BE90B040C200C3C0C590C74
S113076E750C910CAE0CCA0CE70C040D210D3E0D4C
S113077E5C0D790D970DB40DD20DF00D0E0E2C0EE1
S113078E4B0E690E880EA60EC50EE40E030F220F35
S113079E420F610F810FA00FC00FE00FFF0FFF0F6D
S9030000FC
