:100000000C94FE000C941D010C941D010C941D0118
:100010000C941D010C941D010C941D010C941D01E8
:100020000C941D010C941D010C941D010C941D01D8
:100030000C941D010C941D010C9429020C941D01BB
:100040000C941D010C941D010C941D010C941D01B8
:100050000C941D010C941D010C941D010C941D01A8
:100060000C9476010C941D010C941D010C941D013F
:100070000C941D010C941D010C941D010C941D0188
:100080000C941D010C941D010C941D010C941D0178
:100090000C941D010C941D010C941D010C941D0168
:1000A0000C941D010C941D010C941D010C941D0158
:1000B0000C941D010C941D010C941D010C941D0148
:1000C0000C941D010C941D010C941D010C941D0138
:1000D0000C941D010C941D010C941D010C941D0128
:1000E0000C941D010C941D010C941D010C941D0118
:1000F0000C941D010C941D010C941D010C941D0108
:100100000C941D010C941D010C941D010C941D01F7
:100110000C941D010C941D010C941D010C941D01E7
:100120000C941D010C941D010C941D010C941D01D7
:100130000C941D010C941D010C941D010C941D01C7
:100140000C941D010C941D010C941D010C941D01B7
:100150000C941D010C941D010C941D010C941D01A7
:100160000C941D010C941D010C941D010C941D0197
:100170000C941D010C941D010C941D010C941D0187
:100180000C941D010C941D010C941D010C941D0177
:100190000C941D010C941D010C941D010C941D0167
:1001A0000C941D010C941D010C941D010C941D0157
:1001B0000C941D010C941D010C941D010C941D0147
:1001C0000C941D010C941D010C941D010C941D0137
:1001D0000C941D010C941D010C941D010C941D0127
:1001E0000C941D010C941D010C941D010C941D0117
:1001F0000C941D010C941D010C941D0111241FBEB3
:10020000CFEFCDBFDFE2DEBF10E2A0E0B0E2E6EA72
:10021000F4E000E00BBF02C007900D92A030B107E0
:10022000D9F720E2A0E0B0E201C01D92A730B207EA
:10023000E1F70E942D010C9451020C940000E0E5BE
:10024000F0E0808182608083818181FFFDCF91E039
:1002500088ED84BF9093400008950E941F010E9482
:1002600041010E941F02E0E0F6E08FEF81831582DA
:100270008093C3087894E0EAF0E08281876082830B
:10028000FFCFE0E4F6E0818181608183818182603B
:100290008183818180688183818180628183848977
:1002A0008861848B81818061818385818061858380
:1002B000A0ECB8E08C91836D8C9311968C91119782
:1002C000816011968C938681816086830895E0EC2D
:1002D000F8E08181826081830895E0E4F6E0858121
:1002E0008360858386818360868308951F920F9241
:1002F0000FB60F9211240BB60F922F933F934F938B
:100300005F936F937F938F939F93AF93BF93CF939D
:10031000EF93FF93909106208BEA989F812D1124F3
:100320008695282F220F820F292F281B2130F1F0CC
:1003300018F02230C9F140C080910520811107C01A
:100340002FEF3FEF209303203093042004C010923E
:100350000320109204202091032030910420329534
:1003600022952F7023273F70232727C080910520D7
:10037000811107C02FEF3FEF20930120309302201F
:1003800004C01092012010920220809100208F5F03
:100390008093002020910320822F8295807F2091DE
:1003A00002202F70282B09C020910120809100206D
:1003B0008F5F8093002001C020E02093C3089F5FDF
:1003C0009093062080910020893110F4953218F125
:1003D000C0910520CF5FC09305200E946D01E0EC25
:1003E000F8E081818C7F818310920020109206209A
:1003F000C93030F01092052081E0809304060BC0D4
:10040000C13021F481E08093040605C0E0E0F6E00D
:100410008481880F8483FF91EF91CF91BF91AF9139
:100420009F918F917F916F915F914F913F912F910C
:100430000F900BBE0F900FBE0F901F901895E0E02D
:10044000F8E083E08083868388E893E186A397A31E
:1004500008951F920F920FB60F9211240BB60F92B0
:100460002F933F934F935F936F937F938F939F93BC
:10047000AF93BF93EF93FF930E946701FF91EF91BA
:10048000BF91AF919F918F917F916F915F914F91AC
:100490003F912F910F900BBE0F900FBE0F901F90AA
:0604A0001895F894FFCF4F
:00000001FF
