S0110000496D706F6E61746F722E737265635A
S11300000C9404020C9423020C9423020C942302F7
S11300100C9423020C9423020C9423020C942302C8
S11300200C9423020C9423020C9423020C942302B8
S11300300C9423020C9423020C94E2030C942302E8
S11300400C9423020C9423020C9423020C94230298
S11300500C940A040C9423020C9423020C9423029F
S11300600C940E030C9423020C9423020C9423028C
S11300700C9423020C9423020C9423020C94230268
S11300800C9423020C9423020C9423020C94230258
S11300900C9423020C9423020C9423020C94230248
S11300A00C9423020C9423020C9423020C94230238
S11300B00C9423020C9423020C9423020C94230228
S11300C00C9423020C9423020C9423020C94230218
S11300D00C9423020C9423020C9423020C94230208
S11300E00C9423020C9423020C9423020C942302F8
S11300F00C9423020C9423020C9423020C942302E8
S11301000C9423020C9423020C9423020C942302D7
S11301100C9423020C9423020C9423020C942302C7
S11301200C9423020C9423020C9423020C942302B7
S11301300C9423020C9423020C9423020C942302A7
S11301400C9423020C9423020C9423020C94230297
S11301500C9423020C9423020C9423020C94230287
S11301600C9423020C9423020C9423020C94230277
S11301700C9423020C9423020C9423020C94230267
S11301800C9423020C9423020C9423020C94230257
S11301900C9423020C9423020C9423020C94230247
S11301A00C9423020C9423020C9423020C94230237
S11301B00C9423020C9423020C9423020C94230227
S11301C00C9423020C9423020C9423020C94230217
S11301D00C9423020C9423020C9423020C94230207
S11301E00C9423020C9423020C9423020C942302F7
S11301F00C9423020C9423020C9423029CA2C101AC
S113020001C1A29C000000000000000000000100E9
S113021001000200030004000500060007000900B5
S11302200A000C000E001000120014001600190041
S11302301B001E002100240027002A002D0031008D
S1130240340038003C004000440048004D00510098
S113025056005A005F00640069006F007400790062
S11302607F0085008B00910097009D00A300AA00E9
S1130270B000B700BE00C500CC00D300DB00E20034
S1130280EA00F200FA0002010A0112011A01230134
S11302902B0134013D0146014F01580162016B01FC
S11302A075017F01890193019D01A701B201BC0180
S11302B0C701D101DC01E701F301FE0109021502C6
S11302C020022C023802440250025D0269027602C6
S11302D082028F029C02A902B602C302D102DE028C
S11302E0EC02FA02080316032403320341034F030A
S11302F05E036D037C038B039A03A903B903C8034C
S1130300D803E803F803080418042804390449044A
S11303105A046B047C048D049E04AF04C104D2040B
S1130320E404F60408051A052C053E055105630589
S1130330760589059C05AF05C205D605E905FD05C9
S11303401006240638064C066106750689069E06C4
S1130350B306C806DD06F20607071C07320747077F
S11303605D07730789079F07B507CC07E207F907FD
S11303700F0826083D0854086C0883089B08B20837
S1130380CA08E208FA0812092A0943095B09740930
S11303908C09A509BE09D809F1090A0A240A3D0AEB
S11303A0570A710A8B0AA50ABF0ADA0AF40A0F0B64
S11303B02A0B450B600B7B0B960BB20BCD0BE90B99
S11303C0040C200C3C0C590C750C910CAE0CCA0C92
S11303D0E70C040D210D3E0D5C0D790D970DB40D48
S11303E0D20DF00D0E0E2C0E4B0E690E880EA60EBD
S11303F0C50EE40E030F220F420F610F810FA00FF1
S1130400C00FE00FFF0FFF0F11241FBECFEFCDBFB2
S1130410DFE2DEBF10E2A0E0B0E2ECE2F8E000E0F0
S11304200BBF02C007900D92A23CB107D9F721E29D
S1130430A2ECB0E201C01D92A337B207E1F70E941B
S113044068020C9414040C94000090E0FC01EE0F7C
S1130450FF1FE80FF91FEE0FFF1FEE0FFF1FEE0F38
S1130460FF1FE050F04EE60FF11D4083089590E029
S1130470FC01EE0FFF1FE80FF91FEE0FFF1FEE0F39
S1130480FF1FEE0FFF1FE050F04EE60FF11D8081BD
S11304900895E0E0F0E220EC30E208C01192E817A1
S11304A0F907E1F7FC012817390719F0CF0148963D
S11304B0F5CF0895E0E5F0E080818260808381815A
S11304C081FFFDCF91E088ED84BF909340000895B3
S11304D00E945A020E94D9020E94CD030E94D703AF
S11304E0E0E0F6E08FEF818315821092C3087894E0
S11304F0E0EAF0E08281876082832FEF87EA91E669
S1130500215080409040E1F700C000000E94CC02DE
S1130510FFCFEF92FF920F931F93CF93DF930F2E92
S1130520FBECEF2EF0E2FF2EF02D00E02AC0F701E5
S1130530808190E00C2E02C0959587950A94E2F78D
S113054080FF14C04091C220612F802F0E94250299
S11305504091C02061E0610F802F0E9425024091EC
S1130560C32062E0610F802F0E94250221961D5F47
S1130570C830D105E1F60F5F2FEFE21AF20A083016
S113058021F010E0C0E0D0E0D2CFDF91CF911F91F5
S11305900F91FF90EF900895ECEFF1E0ABECB0E237
S11305A023ED30E284918D933196A217B307D1F7EE
S11305B00895E0E4F6E08181816081838181826035
S11305C08183818180688183818180628183848940
S11305D08861848B81818061818385818061858349
S11305E0A0ECB8E08C91836D8C9311968C9111974B
S11305F0816011968C938681816086830895E0ECF6
S1130600F8E08181826081830895E0E4F6E08581E9
S11306108360858386818360868308951F920F9209
S11306200FB60F9211240BB60F922F933F934F9353
S11306305F936F937F938F939F93AF93BF93EF9346
S1130640FF939091CA208BEA989F812D112486955F
S1130650282F220F820F981B913001F120F0923045
S113066009F43AC041C08091C92067E1681B8091B8
S1130670C8200E943702E82FF0E0EE0FFF1FE85F6A
S1130680FD4F859194918093C6209093C7209295B5
S113069082958F7089279F70892727C08091C920F0
S11306A08F5F8093C92067E1681B8091C8200E94F6
S11306B03702E82FF0E0EE0FFF1FE85FFD4F859152
S11306C094918093C4209093C5208091C6208295F4
S11306D0807F9F70892B09C08091C4209091C9208C
S11306E09F5F9093C92001C080E08093C3088091EC
S11306F0CA208F5F8093CA209091C920983110F44A
S11307008432C0F1E2ECF8E080818823ECF70E94A7
S11307100503E0ECF8E081818C7F81831092C9208D
S11307201092CA208091C820883030F01092C820DE
S113073081E08093040618C0811104C081E0809395
S1130740040612C0E0E0F6E09481990F94838F5F71
S1130750883019F08093C82002C01092C8200E94EB
S113076049020E94890206C08091C8208F5F80934D
S1130770C820F5CFFF91EF91BF91AF919F918F91D9
S11307807F916F915F914F913F912F910F900BBE8D
S11307900F900FBE0F901F901895E0E0F8E083E0F3
S11307A08083868388E893E186A397A30895E0E491
S11307B0F8E087E0808381E0868380E29EE486A37C
S11307C097A308951F920F920FB60F9211240BB6A0
S11307D00F922F933F934F935F936F937F938F93D6
S11307E09F93AF93BF93EF93FF930E94FF02FF91F8
S11307F0EF91BF91AF919F918F917F916F915F9195
S11308004F913F912F910F900BBE0F900FBE0F9001
S11308101F9018951F920F920FB60F9211240F90EC
S10F08200FBE0F901F901895F894FFCFA6
S113082C0000FF0000FF0000FF0000FF0000FF00BD
S113083C00FF0000FF0000FF0000FF00FF0000FFAE
S113084C0000FF00FF0000FF0000FF00000000FF9D
S113085C0000FFFF0000FF0000FF000000FF00008D
S113086CFF0000FF000000FF0000FF00FF0000FF7E
S113087C0000FF00FF0000FF0000FF00000000FF6D
S113088C0000FFFF0000FF0000FF000000FF00005D
S113089CFF0000FF000000FF0000FF00FF0000FF4E
S11308AC0000FF00FF0000FF0000FF00000000FF3D
S11308BC0000FFFF0000FF0000FF000000FF00002D
S11308CCFF0000FF000000FF0000FF0000FF00001D
S11308DCFF0000FF0000FF0000FF0000FF0000FF0E
S10508ECC8003E
S9030000FC
