S0110000496D706F6E61746F722E737265635A
S11300000C94FE000C941D010C941D010C941D0114
S11300100C941D010C941D010C941D010C941D01E4
S11300200C941D010C941D010C941D010C941D01D4
S11300300C941D010C941D010C9425020C941D01BB
S11300400C941D010C941D010C941D010C941D01B4
S11300500C941D010C941D010C941D010C941D01A4
S11300600C9476010C941D010C941D010C941D013B
S11300700C941D010C941D010C941D010C941D0184
S11300800C941D010C941D010C941D010C941D0174
S11300900C941D010C941D010C941D010C941D0164
S11300A00C941D010C941D010C941D010C941D0154
S11300B00C941D010C941D010C941D010C941D0144
S11300C00C941D010C941D010C941D010C941D0134
S11300D00C941D010C941D010C941D010C941D0124
S11300E00C941D010C941D010C941D010C941D0114
S11300F00C941D010C941D010C941D010C941D0104
S11301000C941D010C941D010C941D010C941D01F3
S11301100C941D010C941D010C941D010C941D01E3
S11301200C941D010C941D010C941D010C941D01D3
S11301300C941D010C941D010C941D010C941D01C3
S11301400C941D010C941D010C941D010C941D01B3
S11301500C941D010C941D010C941D010C941D01A3
S11301600C941D010C941D010C941D010C941D0193
S11301700C941D010C941D010C941D010C941D0183
S11301800C941D010C941D010C941D010C941D0173
S11301900C941D010C941D010C941D010C941D0163
S11301A00C941D010C941D010C941D010C941D0153
S11301B00C941D010C941D010C941D010C941D0143
S11301C00C941D010C941D010C941D010C941D0133
S11301D00C941D010C941D010C941D010C941D0123
S11301E00C941D010C941D010C941D010C941D0113
S11301F00C941D010C941D010C941D0111241FBEAF
S1130200CFEFCDBFDFE2DEBF10E2A0E0B0E2EEE967
S1130210F4E000E00BBF02C007900D92A030B107DC
S1130220D9F720E2A0E0B0E201C01D92A730B207E6
S1130230E1F70E942D010C944D020C940000E0E5BE
S1130240F0E0808182608083818181FFFDCF91E035
S113025088ED84BF9093400008950E941F010E947E
S113026041010E941B02E0E0F6E08FEF81831582DA
S11302708093C3087894E0EAF0E082818760828307
S1130280FFCFE0E4F6E08181816081838181826037
S11302908183818180688183818180628183848973
S11302A08861848B8181806181838581806185837C
S11302B0A0ECB8E08C91836D8C9311968C9111977E
S11302C0816011968C938681816086830895E0EC29
S11302D0F8E08181826081830895E0E4F6E085811D
S11302E08360858386818360868308951F920F923D
S11302F00FB60F9211240BB60F922F933F934F9387
S11303005F936F937F938F939F93AF93BF93EF9379
S1130310FF93909106208BEA989F812D1124869556
S1130320282F220F820F292F281B213001F118F0CA
S11303302230E9F144C080910520882311F08530F2
S113034039F42FEF30E0209303203093042004C0CD
S11303501092032010920420209103203091042055
S1130360329522952F7023273F70232729C080912F
S11303700520882311F0853039F42FEF30E02093E5
S113038001203093022004C0109201201092022018
S1130390809100208F5F8093002020910320822F82
S11303A08295807F209102202F70282B09C02091F4
S11303B00120809100208F5F8093002001C020E005
S11303C02093C3089F5F9093062080910020893179
S11303D010F49532E8F00E946D01E0ECF8E08181C0
S11303E08C7F81831092002010920620809105203A
S11303F08F5F80930520883030F01092052081E0D3
S11304008093040605C0E0E0F6E08481880F8483CD
S1130410FF91EF91BF91AF919F918F917F916F91D8
S11304205F914F913F912F910F900BBE0F900FBE94
S11304300F901F901895E0E0F8E083E080838683B6
S113044088E893E186A397A308951F920F920FB6AD
S11304500F9211240BB60F922F933F934F935F93F8
S11304606F937F938F939F93AF93BF93EF93FF9378
S11304700E946701FF91EF91BF91AF919F918F917E
S11304807F916F915F914F913F912F910F900BBE90
S11104900F900FBE0F901F901895F894FFCF99
S9030000FC
