S0110000496D706F6E61746F722E737265635A
S11300000C94FE010C941D020C941D020C941D0210
S11300100C941D020C941D020C941D020C941D02E0
S11300200C941D020C941D020C941D020C941D02D0
S11300300C941D020C941D020C9445030C941D0297
S11300400C941D020C941D020C941D020C941D02B0
S11300500C941D020C941D020C941D020C941D02A0
S11300600C9488020C941D020C941D020C941D0225
S11300700C941D020C941D020C941D020C941D0280
S11300800C941D020C941D020C941D020C941D0270
S11300900C941D020C941D020C941D020C941D0260
S11300A00C941D020C941D020C941D020C941D0250
S11300B00C941D020C941D020C941D020C941D0240
S11300C00C941D020C941D020C941D020C941D0230
S11300D00C941D020C941D020C941D020C941D0220
S11300E00C941D020C941D020C941D020C941D0210
S11300F00C941D020C941D020C941D020C941D0200
S11301000C941D020C941D020C941D020C941D02EF
S11301100C941D020C941D020C941D020C941D02DF
S11301200C941D020C941D020C941D020C941D02CF
S11301300C941D020C941D020C941D020C941D02BF
S11301400C941D020C941D020C941D020C941D02AF
S11301500C941D020C941D020C941D020C941D029F
S11301600C941D020C941D020C941D020C941D028F
S11301700C941D020C941D020C941D020C941D027F
S11301800C941D020C941D020C941D020C941D026F
S11301900C941D020C941D020C941D020C941D025F
S11301A00C941D020C941D020C941D020C941D024F
S11301B00C941D020C941D020C941D020C941D023F
S11301C00C941D020C941D020C941D020C941D022F
S11301D00C941D020C941D020C941D020C941D021F
S11301E00C941D020C941D020C941D020C941D020F
S11301F00C941D020C941D020C941D0200000000BE
S113020000000100010002000300040005000600D4
S1130210070009000A000C000E0010001200140070
S1130220160019001B001E002100240027002A00CC
S11302302D003100340038003C00400044004800E8
S11302404D00510056005A005F00640069006F00C1
S1130250740079007F0085008B00910097009D0059
S1130260A300AA00B000B700BE00C500CC00D300B4
S1130270DB00E200EA00F200FA0002010A011201C6
S11302801A0123012B0134013D0146014F0158019C
S113029062016B0175017F01890193019D01A70131
S11302A0B201BC01C701D101DC01E701F301FE0188
S11302B00902150220022C023802440250025D0297
S11302C06902760282028F029C02A902B602C3026C
S11302D0D102DE02EC02FA020803160324033203FD
S11302E041034F035E036D037C038B039A03A9034D
S11302F0B903C803D803E803F8030804180428045E
S1130300390449045A046B047C048D049E04AF042C
S1130310C104D204E404F60408051A052C053E05BC
S113032051056305760589059C05AF05C205D6050B
S1130330E905FD051006240638064C066106750617
S113034089069E06B306C806DD06F20607071C07E3
S1130350320747075D07730789079F07B507CC076F
S1130360E207F9070F0826083D0854086C088308BB
S11303709B08B208CA08E208FA0812092A094309C4
S11303805B0974098C09A509BE09D809F1090A0A8F
S1130390240A3D0A570A710A8B0AA50ABF0ADA0A17
S11303A0F40A0F0B2A0B450B600B7B0B960BB20B5D
S11303B0CD0BE90B040C200C3C0C590C750C910C66
S11303C0AE0CCA0CE70C040D210D3E0D5C0D790D2D
S11303D0970DB40DD20DF00D0E0E2C0E4B0E690EB2
S11303E0880EA60EC50EE40E030F220F420F610FF6
S11303F0810FA00FC00FE00FFF0FFF0F11241FBECE
S1130400CFEFCDBFDFE2DEBF10E2A0E0B0E2EEED61
S1130410F6E000E00BBF02C007900D92A03CB107CC
S1130420D9F720E2A0ECB0E201C01D92A73CB207CC
S1130430E1F70E943F020C946D030C9400009C01B0
S1130440220F331F820F931F880F991F880F991F44
S1130450880F991F8050904EFC01E60FF71F808192
S11304600895E0E5F0E0808182608083818181FFEE
S1130470FDCF91E088ED84BF9093400008950E94E1
S113048031020E9453020E943B03E0E0F6E08FEF4A
S1130490818315821092C3087894E0EAF0E08281A7
S11304A087608283FFCFE0E4F6E08181816081830D
S11304B0818182608183818180688183818180627E
S11304C0818384898861848B818180618183858132
S11304D080618583A0ECB8E08C91836D8C93119638
S11304E08C911197816011968C93868181608683AB
S11304F00895E0ECF8E08181826081830895E0E46E
S1130500F6E0858183608583868183608683089590
S11305101F920F920FB60F9211240BB60F922F93C6
S11305203F934F935F936F937F938F939F93AF9377
S1130530BF93CF93EF93FF939091C6208BEA989F3C
S1130540812D11248695282F220F820F981B91301C
S113055019F120F0923009F441C048C08091C520BF
S113056067E170E0681B71098091C42090E00E94EB
S11305701F02E82FF0E0EE0FFF1FE450FE4F25911D
S113058034912093C2203093C320329522952F704A
S113059023273F7023272BC08091C5208F5F809332
S11305A0C52067E170E0681B71098091C42090E068
S11305B00E941F02E82FF0E0EE0FFF1FE450FE4FF1
S11305C0859194918093C0209093C1202091C22062
S11305D02295207F892F8F70282B09C02091C0205D
S11305E08091C5208F5F8093C52001C020E02093B7
S11305F0C3088091C6208F5F8093C6209091C52048
S1130600993110F4853218F1C091C420CF5FC093A2
S1130610C4200E947F02E0ECF8E081818C7F81831A
S11306201092C5201092C620C93030F01092C42018
S113063081E0809304060BC0C13021F481E08093F3
S1130640040605C0E0E0F6E08481880F8483FF910E
S1130650EF91CF91BF91AF919F918F917F916F91C6
S11306605F914F913F912F910F900BBE0F900FBE52
S11306700F901F901895E0E0F8E083E08083868374
S113068088E893E186A397A308951F920F920FB66B
S11306900F9211240BB60F922F933F934F935F93B6
S11306A06F937F938F939F93AF93BF93EF93FF9336
S11306B00E947902FF91EF91BF91AF919F918F9129
S11306C07F916F915F914F913F912F910F900BBE4E
S11106D00F900FBE0F901F901895F894FFCF57
S11306DE0000FF0000FF0000FF0000FF0000FF000D
S11306EE00FF0000FF0000FF0000FF00FF0000FFFE
S11306FE0000FF00FF0000FF0000FF00000000FFED
S113070E0000FFFF0000FF0000FF000000FF0000DC
S113071EFF0000FF000000FF0000FF00FF0000FFCD
S113072E0000FF00FF0000FF0000FF00000000FFBC
S113073E0000FFFF0000FF0000FF000000FF0000AC
S113074EFF0000FF000000FF0000FF00FF0000FF9D
S113075E0000FF00FF0000FF0000FF00000000FF8C
S113076E0000FFFF0000FF0000FF000000FF00007C
S113077EFF0000FF000000FF0000FF0000FF00006C
S113078EFF0000FF0000FF0000FF0000FF0000FF5D
S9030000FC
