S0110000496D706F6E61746F722E737265635A
S11300000C94FE000C9408010C9408010C94080153
S11300100C9408010C9408010C9408010C94080138
S11300200C9408010C9408010C9408010C94080128
S11300300C9408010C9408010C9408010C94080118
S11300400C9408010C9408010C9408010C94080108
S11300500C9408010C9408010C9408010C940801F8
S11300600C9408010C9408010C9408010C940801E8
S11300700C9408010C9408010C9408010C940801D8
S11300800C9408010C9408010C9408010C940801C8
S11300900C9408010C9408010C9408010C940801B8
S11300A00C9408010C9408010C9408010C940801A8
S11300B00C9408010C9408010C9408010C94080198
S11300C00C9408010C9408010C9408010C94080188
S11300D00C9408010C9408010C9408010C94080178
S11300E00C9408010C9408010C9408010C94080168
S11300F00C9408010C9408010C9408010C94080158
S11301000C9408010C9408010C9408010C94080147
S11301100C9408010C9408010C9408010C94080137
S11301200C9408010C9408010C9408010C94080127
S11301300C9408010C9408010C9408010C94080117
S11301400C9408010C9408010C9408010C94080107
S11301500C9408010C9408010C9408010C940801F7
S11301600C9408010C9408010C9408010C940801E7
S11301700C9408010C9408010C9408010C940801D7
S11301800C9408010C9408010C9408010C940801C7
S11301900C9408010C9408010C9408010C940801B7
S11301A00C9408010C9408010C9408010C940801A7
S11301B00C9408010C9408010C9408010C94080197
S11301C00C9408010C9408010C9408010C94080187
S11301D00C9408010C9408010C9408010C94080177
S11301E00C9408010C9408010C9408010C94080167
S11301F00C9408010C9408010C94080111241FBEEE
S1130200CFEFCDBFDFE2DEBF0E9418010C94810165
S11302100C940000E0E5F0E08081816080838181BE
S113022080FFFDCF90E088ED84BF90934000089557
S11302300E940A01E0E4F6E081818160818381818A
S113024082608183818180688183818180628183EE
S1130250A0E0B6E08FEF11968C9311979489986182
S1130260948B91819061918395819061958315968A
S11302708C93A0ECB8E09C9190659C9311969C9112
S1130280119711969C93119796819160968313967A
S11302908C93E0ECF8E082818823ECF780EF809384
S11302A0C308E0ECF8E082818823ECF722E230E036
S11302B0E0ECF8E0138282818823ECF721503109C5
S11302C0C9F7E0E4F6E085818160858386818160F9
S11302D08683E0E0F6E08481811109C084818F5F28
S11302E0848383EF91E00197F1F700C000008481DB
S11302F0880F848383EF91E00197F1F700C0000039
S1090300EACFF894FFCFE0
S9030000FC
