:100000000C94FE000C9410010C9410010C9410013F
:100010000C9410010C9410010C9410010C9410011C
:100020000C9410010C9410010C9410010C9410010C
:100030000C9410010C9410010C94B1010C9410015B
:100040000C9410010C9410010C9410010C941001EC
:100050000C9410010C9410010C9410010C941001DC
:100060000C9460010C9410010C9410010C9410017C
:100070000C9410010C9410010C9410010C941001BC
:100080000C9410010C9410010C9410010C941001AC
:100090000C9410010C9410010C9410010C9410019C
:1000A0000C9410010C9410010C9410010C9410018C
:1000B0000C9410010C9410010C9410010C9410017C
:1000C0000C9410010C9410010C9410010C9410016C
:1000D0000C9410010C9410010C9410010C9410015C
:1000E0000C9410010C9410010C9410010C9410014C
:1000F0000C9410010C9410010C9410010C9410013C
:100100000C9410010C9410010C9410010C9410012B
:100110000C9410010C9410010C9410010C9410011B
:100120000C9410010C9410010C9410010C9410010B
:100130000C9410010C9410010C9410010C941001FB
:100140000C9410010C9410010C9410010C941001EB
:100150000C9410010C9410010C9410010C941001DB
:100160000C9410010C9410010C9410010C941001CB
:100170000C9410010C9410010C9410010C941001BB
:100180000C9410010C9410010C9410010C941001AB
:100190000C9410010C9410010C9410010C9410019B
:1001A0000C9410010C9410010C9410010C9410018B
:1001B0000C9410010C9410010C9410010C9410017B
:1001C0000C9410010C9410010C9410010C9410016B
:1001D0000C9410010C9410010C9410010C9410015B
:1001E0000C9410010C9410010C9410010C9410014B
:1001F0000C9410010C9410010C94100111241FBEDA
:10020000CFEFCDBFDFE2DEBF20E2A0E0B0E201C071
:100210001D92A230B207E1F70E9420010C94D9018F
:100220000C940000E0E5F0E08081826080838181B1
:1002300081FFFDCF91E088ED84BF90934000089549
:100240000E9412010E9434010E94A7017894E0EA02
:10025000F0E0828187608283E0E0F6E08FEF8183C7
:1002600015821092C308FFCFE0E4F6E0818181603F
:1002700081838181826081838181806881838181A2
:100280008062818384898861848B8181806181839C
:10029000858180618583A0ECB8E08C91806D8C9322
:1002A00011968C911197816011968C938681816053
:1002B00086830895E0ECF8E081818260818308956F
:1002C0001F920F920FB60F9211240BB60F922F931D
:1002D0008F939F93EF93FF9383E08093C308809164
:1002E00001208F5F853218F48093012024C0109282
:1002F0000120E0E4F6E08581836085838681836068
:100300008683E0ECF8E081818C7F8183209100205E
:1003100081E090E0022E02C0880F991F0A94E2F754
:100320008095809304062F5F283018F420930020D6
:1003300002C010920020FF91EF919F918F912F9119
:100340000F900BBE0F900FBE0F901F901895E0E01E
:10035000F8E083E08083868388E893E186A397A30F
:1003600008951F920F920FB60F9211240BB60F92A1
:100370002F933F934F935F936F937F938F939F93AD
:10038000AF93BF93EF93FF930E945A01FF91EF91B8
:10039000BF91AF919F918F917F916F915F914F919D
:1003A0003F912F910F900BBE0F900FBE0F901F909B
:0603B0001895F894FFCF40
:00000001FF
